{
  "contractName": "Donation",
  "abi": [
    {
      "constant": true,
      "inputs": [
        {
          "name": "",
          "type": "uint256"
        }
      ],
      "name": "posts",
      "outputs": [
        {
          "name": "id",
          "type": "uint256"
        },
        {
          "name": "upVote",
          "type": "uint256"
        },
        {
          "name": "downVote",
          "type": "uint256"
        },
        {
          "name": "goalAmount",
          "type": "uint256"
        },
        {
          "name": "donationTotalAmount",
          "type": "uint256"
        },
        {
          "name": "destinationAddress",
          "type": "address"
        }
      ],
      "payable": false,
      "stateMutability": "view",
      "type": "function"
    },
    {
      "constant": true,
      "inputs": [],
      "name": "postCount",
      "outputs": [
        {
          "name": "",
          "type": "uint256"
        }
      ],
      "payable": false,
      "stateMutability": "view",
      "type": "function"
    },
    {
      "constant": true,
      "inputs": [
        {
          "name": "",
          "type": "uint256"
        }
      ],
      "name": "postIdsArray",
      "outputs": [
        {
          "name": "",
          "type": "uint256"
        }
      ],
      "payable": false,
      "stateMutability": "view",
      "type": "function"
    },
    {
      "anonymous": false,
      "inputs": [
        {
          "indexed": true,
          "name": "_postId",
          "type": "uint256"
        }
      ],
      "name": "archivedEvent",
      "type": "event"
    },
    {
      "constant": true,
      "inputs": [],
      "name": "getBalance",
      "outputs": [
        {
          "name": "",
          "type": "uint256"
        }
      ],
      "payable": false,
      "stateMutability": "view",
      "type": "function"
    },
    {
      "constant": true,
      "inputs": [
        {
          "name": "_postId",
          "type": "uint256"
        }
      ],
      "name": "howMuchMoreToGoal",
      "outputs": [
        {
          "name": "",
          "type": "uint256"
        }
      ],
      "payable": false,
      "stateMutability": "view",
      "type": "function"
    },
    {
      "constant": true,
      "inputs": [],
      "name": "getPostIds",
      "outputs": [
        {
          "name": "",
          "type": "uint256[]"
        }
      ],
      "payable": false,
      "stateMutability": "view",
      "type": "function"
    },
    {
      "constant": false,
      "inputs": [
        {
          "name": "_id",
          "type": "uint256"
        },
        {
          "name": "_goal",
          "type": "uint256"
        },
        {
          "name": "_salerAddress",
          "type": "address"
        }
      ],
      "name": "addPost",
      "outputs": [],
      "payable": false,
      "stateMutability": "nonpayable",
      "type": "function"
    },
    {
      "constant": false,
      "inputs": [
        {
          "name": "_postId",
          "type": "uint256"
        }
      ],
      "name": "donate",
      "outputs": [],
      "payable": true,
      "stateMutability": "payable",
      "type": "function"
    },
    {
      "constant": false,
      "inputs": [
        {
          "name": "_postId",
          "type": "uint256"
        }
      ],
      "name": "downVote",
      "outputs": [],
      "payable": false,
      "stateMutability": "nonpayable",
      "type": "function"
    }
  ],
  "bytecode": "0x608060405234801561001057600080fd5b50610ee7806100206000396000f3fe608060405260043610610099576000357c0100000000000000000000000000000000000000000000000000000000900463ffffffff1680630b1e7f831461009e57806312065fe01461013c57806317906c2e14610167578063182f2bc0146101925780631ae9392d146101e157806359b6629b1461021c578063b65804ac14610288578063f14faf6f146102ed578063f3d0eb071461031b575b600080fd5b3480156100aa57600080fd5b506100d7600480360360208110156100c157600080fd5b810190808035906020019092919050505061036a565b604051808781526020018681526020018581526020018481526020018381526020018273ffffffffffffffffffffffffffffffffffffffff1673ffffffffffffffffffffffffffffffffffffffff168152602001965050505050505060405180910390f35b34801561014857600080fd5b506101516103c6565b6040518082815260200191505060405180910390f35b34801561017357600080fd5b5061017c6103e5565b6040518082815260200191505060405180910390f35b34801561019e57600080fd5b506101cb600480360360208110156101b557600080fd5b81019080803590602001909291905050506103eb565b6040518082815260200191505060405180910390f35b3480156101ed57600080fd5b5061021a6004803603602081101561020457600080fd5b810190808035906020019092919050505061040e565b005b34801561022857600080fd5b5061023161081d565b6040518080602001828103825283818151815260200191508051906020019060200280838360005b83811015610274578082015181840152602081019050610259565b505050509050019250505060405180910390f35b34801561029457600080fd5b506102eb600480360360608110156102ab57600080fd5b810190808035906020019092919080359060200190929190803573ffffffffffffffffffffffffffffffffffffffff169060200190929190505050610875565b005b6103196004803603602081101561030357600080fd5b8101908080359060200190929190505050610a15565b005b34801561032757600080fd5b506103546004803603602081101561033e57600080fd5b8101908080359060200190929190505050610e85565b6040518082815260200191505060405180910390f35b60006020528060005260406000206000915090508060000154908060010154908060020154908060030154908060040154908060050160009054906101000a900473ffffffffffffffffffffffffffffffffffffffff16905086565b60003073ffffffffffffffffffffffffffffffffffffffff1631905090565b60025481565b6001818154811015156103fa57fe5b906000526020600020016000915090505481565b600081111515610486576040517f08c379a000000000000000000000000000000000000000000000000000000000815260040180806020018281038252600c8152602001807f496e76616c696420506f7374000000000000000000000000000000000000000081525060200191505060405180910390fd5b7fffffffffffffffffffffffffffffffffffffffffffffffffffffffffffffffff60008083815260200190815260200160002060060160003373ffffffffffffffffffffffffffffffffffffffff1673ffffffffffffffffffffffffffffffffffffffff1681526020019081526020016000205414151515610596576040517f08c379a00000000000000000000000000000000000000000000000000000000081526004018080602001828103825260228152602001807f596f7520617265206e6f742061626c6520746f20646f776e566f74652074776981526020017f636500000000000000000000000000000000000000000000000000000000000081525060400191505060405180910390fd5b600160008083815260200190815260200160002060060160003373ffffffffffffffffffffffffffffffffffffffff1673ffffffffffffffffffffffffffffffffffffffff16815260200190815260200160002054141561077e57600080828152602001908152602001600020600101600081548092919060019003919050555060008082815260200190815260200160002060070160003373ffffffffffffffffffffffffffffffffffffffff1673ffffffffffffffffffffffffffffffffffffffff16815260200190815260200160002054600080838152602001908152602001600020600401600082825403925050819055503373ffffffffffffffffffffffffffffffffffffffff166108fc60008084815260200190815260200160002060070160003373ffffffffffffffffffffffffffffffffffffffff1673ffffffffffffffffffffffffffffffffffffffff168152602001908152602001600020549081150290604051600060405180830381858888f19350505050158015610724573d6000803e3d6000fd5b50600080600083815260200190815260200160002060070160003373ffffffffffffffffffffffffffffffffffffffff1673ffffffffffffffffffffffffffffffffffffffff168152602001908152602001600020819055505b600080828152602001908152602001600020600201600081548092919060010191905055507fffffffffffffffffffffffffffffffffffffffffffffffffffffffffffffffff60008083815260200190815260200160002060060160003373ffffffffffffffffffffffffffffffffffffffff1673ffffffffffffffffffffffffffffffffffffffff1681526020019081526020016000208190555050565b6060600180548060200260200160405190810160405280929190818152602001828054801561086b57602002820191906000526020600020905b815481526020019060010190808311610857575b5050505050905090565b6000831115156108ed576040517f08c379a000000000000000000000000000000000000000000000000000000000815260040180806020018281038252600c8152602001807f496e76616c696420706f7374000000000000000000000000000000000000000081525060200191505060405180910390fd5b60026000815480929190600101919050555060018390806001815401808255809150509060018203906000526020600020016000909192909190915055506000670de0b6b3a76400008302905060c0604051908101604052808581526020016000815260200160008152602001828152602001600081526020018373ffffffffffffffffffffffffffffffffffffffff16815250600080868152602001908152602001600020600082015181600001556020820151816001015560408201518160020155606082015181600301556080820151816004015560a08201518160050160006101000a81548173ffffffffffffffffffffffffffffffffffffffff021916908373ffffffffffffffffffffffffffffffffffffffff16021790555090505050505050565b600081111515610a8d576040517f08c379a000000000000000000000000000000000000000000000000000000000815260040180806020018281038252600c8152602001807f496e76616c696420506f7374000000000000000000000000000000000000000081525060200191505060405180910390fd5b600034111515610b05576040517f08c379a000000000000000000000000000000000000000000000000000000000815260040180806020018281038252600e8152602001807f496e76616c696420416d6f756e7400000000000000000000000000000000000081525060200191505060405180910390fd5b7fffffffffffffffffffffffffffffffffffffffffffffffffffffffffffffffff60008083815260200190815260200160002060060160003373ffffffffffffffffffffffffffffffffffffffff1673ffffffffffffffffffffffffffffffffffffffff168152602001908152602001600020541415610c2757600080828152602001908152602001600020600201600081548092919060019003919050555060008082815260200190815260200160002060010160008154809291906001019190505550600160008083815260200190815260200160002060060160003373ffffffffffffffffffffffffffffffffffffffff1673ffffffffffffffffffffffffffffffffffffffff16815260200190815260200160002081905550610d01565b600080600083815260200190815260200160002060060160003373ffffffffffffffffffffffffffffffffffffffff1673ffffffffffffffffffffffffffffffffffffffff168152602001908152602001600020541415610ca857600080828152602001908152602001600020600101600081548092919060010191905055505b600160008083815260200190815260200160002060060160003373ffffffffffffffffffffffffffffffffffffffff1673ffffffffffffffffffffffffffffffffffffffff168152602001908152602001600020819055505b34600080838152602001908152602001600020600401600082825401925050819055503460008083815260200190815260200160002060070160003373ffffffffffffffffffffffffffffffffffffffff1673ffffffffffffffffffffffffffffffffffffffff168152602001908152602001600020600082825401925050819055506000808281526020019081526020016000206003015460008083815260200190815260200160002060040154101515610e8257600080600083815260200190815260200160002060050160009054906101000a900473ffffffffffffffffffffffffffffffffffffffff16905060008190508073ffffffffffffffffffffffffffffffffffffffff166108fc600080868152602001908152602001600020600401549081150290604051600060405180830381858888f19350505050158015610e51573d6000803e3d6000fd5b50827f932127406257bd0ebc39f838d837c7f8a99483f52faaf216ca725306e57e78dc60405160405180910390a250505b50565b6000806000838152602001908152602001600020600401546000808481526020019081526020016000206003015403905091905056fea165627a7a7230582088210714eeecf22105535999bd02fc4dbe7ef2d9e84667112d98ba25bedb44f30029",
  "source": "pragma solidity ^0.5.0;\n\ncontract Donation {\n    //Model a Candidate\n    struct Post{\n        uint id; // uniqe id for each post(comes from external database)\n        uint upVote; // upvote count\n        uint downVote; // downvote count\n        uint256 goalAmount; // goal donation amount(when the money rearches the amount, send the money to destination)\n        uint256 donationTotalAmount; // total donation amount in wei (1 ether is 1000000000000000000)\n        address destinationAddress;  // address that this contract sends the money to\n        mapping(address => int) voters; // each user vote status\n        mapping(address => uint256) donations; // each user donation amount\n    }\n\n    // voters status -1: downvote,\n    //                0: no vote\n    //                1: upvote\n\n    //posts key value pair.(the key is post's id)\n    mapping(uint => Post) public posts;\n\n    // store post ids as array for looping through\n    uint[] public postIdsArray;\n\n    // Store Post Count\n    uint public postCount;\n\n    // constructor\n    // constructor() public{\n    //     addPost(98, 5,msg.sender);\n    //     addPost(99, 5,msg.sender);\n    // }\n\n    // funciton returns constact's balance\n    function getBalance() public view returns(uint256){\n     return address(this).balance;\n    }\n\n    // funciton returns how much more to reach the goal\n    function howMuchMoreToGoal(uint _postId) public view returns(uint256){\n     return posts[_postId].goalAmount - posts[_postId].donationTotalAmount;\n    }\n\n    // return postIds array\n    function getPostIds() public view returns(uint[] memory){\n        return postIdsArray;\n    }\n\n    // function to add a new post with id parameter\n    function addPost (uint _id, uint _goal, address _salerAddress) public {\n        require(_id > 0, \"Invalid post\");\n        // increment post count\n        postCount ++;\n        // set the post id in postIds array\n        postIdsArray.push(_id);\n        // convert Ether to Wei\n        uint256  weiGoal = _goal * 1000000000000000000;\n\n        posts[_id] = Post(_id, 0, 0, weiGoal, 0, _salerAddress);\n    }\n\n    function donate (uint _postId) public payable{\n        // check if valid post\n        require(_postId > 0, \"Invalid Post\");\n        // donation amount has to be positive value\n        require(msg.value > 0, \"Invalid Amount\");\n\n        if( posts[_postId].voters[msg.sender] == -1){\n            // if the user has done downVote, toggle the vote status\n            posts[_postId].downVote--;\n            posts[_postId].upVote++;\n\n            // set the user as upvoter\n            posts[_postId].voters[msg.sender] = 1;\n        }else{\n            if(posts[_postId].voters[msg.sender] == 0)\n            {\n                // if the user has never voted, set the user as upvoter\n                posts[_postId].upVote++;\n            }\n            // set user as upvoter\n            posts[_postId].voters[msg.sender] = 1;\n        }\n\n        // add amount to total\n        posts[_postId].donationTotalAmount += msg.value;\n        // add amount to individual donation amount\n        posts[_postId].donations[msg.sender] += msg.value;\n\n        // when donation amount reaches the goal, send money out and close the project\n        if(posts[_postId].donationTotalAmount >= posts[_postId].goalAmount){\n            address destination = posts[_postId].destinationAddress;\n            // convert an address tye to address payable type\n            address payable payableDestinationAddress = address(uint160(destination));\n           payableDestinationAddress.transfer(posts[_postId].donationTotalAmount);\n\n           // emit the archive event\n           emit archivedEvent(_postId);\n        }\n    }\n\n    // reaching goal event\n    event archivedEvent (uint indexed _postId);\n\n    function downVote (uint _postId) public {\n        require(_postId > 0, \"Invalid Post\");\n        require(posts[_postId].voters[msg.sender] != -1, \"You are not able to downVote twice\");\n\n        if( posts[_postId].voters[msg.sender] == 1){\n            // if user was upvoter then toggle the vote status\n            posts[_postId].upVote--;\n            posts[_postId].donationTotalAmount -= posts[_postId].donations[msg.sender];\n\n            //Refund action\n            // return the money that the user donated\n            msg.sender.transfer(posts[_postId].donations[msg.sender]);\n            // set 0 to the individual donation amount\n            posts[_postId].donations[msg.sender] = 0;\n        }\n\n        posts[_postId].downVote++;\n\n        // set the user as down voter\n        posts[_postId].voters[msg.sender] = -1;\n    }\n\n}",
  "sourcePath": "/Users/mizuki/Study/D19/AdvancedStudio2/trust-charity/contracts/Donation.sol",
  "compiler": {
    "name": "solc",
    "version": "0.5.0+commit.1d4f565a.Emscripten.clang"
  },
  "schemaVersion": "3.0.9",
  "updatedAt": "2019-10-06T10:42:20.998Z",
  "devdoc": {
    "methods": {}
  },
  "userdoc": {
    "methods": {}
  }
}