{
  "contractName": "Donation",
  "abi": [
    {
      "constant": true,
      "inputs": [
        {
          "name": "",
          "type": "uint256"
        }
      ],
      "name": "posts",
      "outputs": [
        {
          "name": "id",
          "type": "uint256"
        },
        {
          "name": "upVote",
          "type": "uint256"
        },
        {
          "name": "downVote",
          "type": "uint256"
        },
        {
          "name": "goalAmount",
          "type": "uint256"
        },
        {
          "name": "donationTotalAmount",
          "type": "uint256"
        },
        {
          "name": "destinationAddress",
          "type": "address"
        }
      ],
      "payable": false,
      "stateMutability": "view",
      "type": "function"
    },
    {
      "constant": true,
      "inputs": [],
      "name": "postCount",
      "outputs": [
        {
          "name": "",
          "type": "uint256"
        }
      ],
      "payable": false,
      "stateMutability": "view",
      "type": "function"
    },
    {
      "constant": true,
      "inputs": [
        {
          "name": "",
          "type": "uint256"
        }
      ],
      "name": "postIdsArray",
      "outputs": [
        {
          "name": "",
          "type": "uint256"
        }
      ],
      "payable": false,
      "stateMutability": "view",
      "type": "function"
    },
    {
      "inputs": [],
      "payable": false,
      "stateMutability": "nonpayable",
      "type": "constructor"
    },
    {
      "constant": true,
      "inputs": [
        {
          "name": "_postId",
          "type": "uint256"
        }
      ],
      "name": "howMuchMoreToGoal",
      "outputs": [
        {
          "name": "",
          "type": "uint256"
        }
      ],
      "payable": false,
      "stateMutability": "view",
      "type": "function"
    },
    {
      "constant": true,
      "inputs": [],
      "name": "getPostIds",
      "outputs": [
        {
          "name": "",
          "type": "uint256[]"
        }
      ],
      "payable": false,
      "stateMutability": "view",
      "type": "function"
    },
    {
      "constant": false,
      "inputs": [
        {
          "name": "_id",
          "type": "uint256"
        },
        {
          "name": "_goal",
          "type": "uint256"
        }
      ],
      "name": "addPost",
      "outputs": [],
      "payable": false,
      "stateMutability": "nonpayable",
      "type": "function"
    },
    {
      "constant": false,
      "inputs": [
        {
          "name": "_postId",
          "type": "uint256"
        }
      ],
      "name": "donate",
      "outputs": [],
      "payable": true,
      "stateMutability": "payable",
      "type": "function"
    },
    {
      "constant": false,
      "inputs": [
        {
          "name": "_postId",
          "type": "uint256"
        }
      ],
      "name": "downVote",
      "outputs": [],
      "payable": false,
      "stateMutability": "nonpayable",
      "type": "function"
    }
  ],
  "bytecode": "0x608060405234801561001057600080fd5b506100236062600561003a60201b60201c565b6100356063600561003a60201b60201c565b6101d6565b600082116100b0576040517f08c379a000000000000000000000000000000000000000000000000000000000815260040180806020018281038252600c8152602001807f496e76616c696420706f7374000000000000000000000000000000000000000081525060200191505060405180910390fd5b60026000815480929190600101919050555060018290806001815401808255809150509060018203906000526020600020016000909192909190915055506000670de0b6b3a7640000820290506040518060c001604052808481526020016000815260200160008152602001828152602001600081526020013373ffffffffffffffffffffffffffffffffffffffff16815250600080858152602001908152602001600020600082015181600001556020820151816001015560408201518160020155606082015181600301556080820151816004015560a08201518160050160006101000a81548173ffffffffffffffffffffffffffffffffffffffff021916908373ffffffffffffffffffffffffffffffffffffffff160217905550905050505050565b610da5806101e56000396000f3fe60806040526004361061007b5760003560e01c806359b6629b1161004e57806359b6629b146101d357806383db15481461023f578063f14faf6f14610284578063f3d0eb07146102b25761007b565b80630b1e7f831461008057806317906c2e1461011e578063182f2bc0146101495780631ae9392d14610198575b600080fd5b34801561008c57600080fd5b506100b9600480360360208110156100a357600080fd5b8101908080359060200190929190505050610301565b604051808781526020018681526020018581526020018481526020018381526020018273ffffffffffffffffffffffffffffffffffffffff1673ffffffffffffffffffffffffffffffffffffffff168152602001965050505050505060405180910390f35b34801561012a57600080fd5b5061013361035d565b6040518082815260200191505060405180910390f35b34801561015557600080fd5b506101826004803603602081101561016c57600080fd5b8101908080359060200190929190505050610363565b6040518082815260200191505060405180910390f35b3480156101a457600080fd5b506101d1600480360360208110156101bb57600080fd5b8101908080359060200190929190505050610384565b005b3480156101df57600080fd5b506101e861074c565b6040518080602001828103825283818151815260200191508051906020019060200280838360005b8381101561022b578082015181840152602081019050610210565b505050509050019250505060405180910390f35b34801561024b57600080fd5b506102826004803603604081101561026257600080fd5b8101908080359060200190929190803590602001909291905050506107a4565b005b6102b06004803603602081101561029a57600080fd5b8101908080359060200190929190505050610940565b005b3480156102be57600080fd5b506102eb600480360360208110156102d557600080fd5b8101908080359060200190929190505050610d1e565b6040518082815260200191505060405180910390f35b60006020528060005260406000206000915090508060000154908060010154908060020154908060030154908060040154908060050160009054906101000a900473ffffffffffffffffffffffffffffffffffffffff16905086565b60025481565b6001818154811061037057fe5b906000526020600020016000915090505481565b600081116103fa576040517f08c379a000000000000000000000000000000000000000000000000000000000815260040180806020018281038252600c8152602001807f496e76616c696420506f7374000000000000000000000000000000000000000081525060200191505060405180910390fd5b7fffffffffffffffffffffffffffffffffffffffffffffffffffffffffffffffff60008083815260200190815260200160002060060160003373ffffffffffffffffffffffffffffffffffffffff1673ffffffffffffffffffffffffffffffffffffffff1681526020019081526020016000205414156104c5576040517f08c379a0000000000000000000000000000000000000000000000000000000008152600401808060200182810382526022815260200180610d586022913960400191505060405180910390fd5b600160008083815260200190815260200160002060060160003373ffffffffffffffffffffffffffffffffffffffff1673ffffffffffffffffffffffffffffffffffffffff1681526020019081526020016000205414156106ad57600080828152602001908152602001600020600101600081548092919060019003919050555060008082815260200190815260200160002060070160003373ffffffffffffffffffffffffffffffffffffffff1673ffffffffffffffffffffffffffffffffffffffff16815260200190815260200160002054600080838152602001908152602001600020600401600082825403925050819055503373ffffffffffffffffffffffffffffffffffffffff166108fc60008084815260200190815260200160002060070160003373ffffffffffffffffffffffffffffffffffffffff1673ffffffffffffffffffffffffffffffffffffffff168152602001908152602001600020549081150290604051600060405180830381858888f19350505050158015610653573d6000803e3d6000fd5b50600080600083815260200190815260200160002060070160003373ffffffffffffffffffffffffffffffffffffffff1673ffffffffffffffffffffffffffffffffffffffff168152602001908152602001600020819055505b600080828152602001908152602001600020600201600081548092919060010191905055507fffffffffffffffffffffffffffffffffffffffffffffffffffffffffffffffff60008083815260200190815260200160002060060160003373ffffffffffffffffffffffffffffffffffffffff1673ffffffffffffffffffffffffffffffffffffffff1681526020019081526020016000208190555050565b6060600180548060200260200160405190810160405280929190818152602001828054801561079a57602002820191906000526020600020905b815481526020019060010190808311610786575b5050505050905090565b6000821161081a576040517f08c379a000000000000000000000000000000000000000000000000000000000815260040180806020018281038252600c8152602001807f496e76616c696420706f7374000000000000000000000000000000000000000081525060200191505060405180910390fd5b60026000815480929190600101919050555060018290806001815401808255809150509060018203906000526020600020016000909192909190915055506000670de0b6b3a7640000820290506040518060c001604052808481526020016000815260200160008152602001828152602001600081526020013373ffffffffffffffffffffffffffffffffffffffff16815250600080858152602001908152602001600020600082015181600001556020820151816001015560408201518160020155606082015181600301556080820151816004015560a08201518160050160006101000a81548173ffffffffffffffffffffffffffffffffffffffff021916908373ffffffffffffffffffffffffffffffffffffffff160217905550905050505050565b600081116109b6576040517f08c379a000000000000000000000000000000000000000000000000000000000815260040180806020018281038252600c8152602001807f496e76616c696420506f7374000000000000000000000000000000000000000081525060200191505060405180910390fd5b60003411610a2c576040517f08c379a000000000000000000000000000000000000000000000000000000000815260040180806020018281038252600e8152602001807f496e76616c696420416d6f756e7400000000000000000000000000000000000081525060200191505060405180910390fd5b7fffffffffffffffffffffffffffffffffffffffffffffffffffffffffffffffff60008083815260200190815260200160002060060160003373ffffffffffffffffffffffffffffffffffffffff1673ffffffffffffffffffffffffffffffffffffffff168152602001908152602001600020541415610b4e57600080828152602001908152602001600020600201600081548092919060019003919050555060008082815260200190815260200160002060010160008154809291906001019190505550600160008083815260200190815260200160002060060160003373ffffffffffffffffffffffffffffffffffffffff1673ffffffffffffffffffffffffffffffffffffffff16815260200190815260200160002081905550610c28565b600080600083815260200190815260200160002060060160003373ffffffffffffffffffffffffffffffffffffffff1673ffffffffffffffffffffffffffffffffffffffff168152602001908152602001600020541415610bcf57600080828152602001908152602001600020600101600081548092919060010191905055505b600160008083815260200190815260200160002060060160003373ffffffffffffffffffffffffffffffffffffffff1673ffffffffffffffffffffffffffffffffffffffff168152602001908152602001600020819055505b34600080838152602001908152602001600020600401600082825401925050819055503460008083815260200190815260200160002060070160003373ffffffffffffffffffffffffffffffffffffffff1673ffffffffffffffffffffffffffffffffffffffff16815260200190815260200160002060008282540192505081905550600080828152602001908152602001600020600301546000808381526020019081526020016000206004015410610d1b57610d1a60008083815260200190815260200160002060050160009054906101000a900473ffffffffffffffffffffffffffffffffffffffff16610d54565b5b50565b60008060008381526020019081526020016000206004015460008084815260200190815260200160002060030154039050919050565b5056fe596f7520617265206e6f742061626c6520746f20646f776e566f7465207477696365a165627a7a72305820bebbd63699b4506e7069ef84e262251ffa954dfe03609a36ced009f891deddb20029",
  "source": "pragma solidity ^0.5.0;\r\n\r\ncontract Donation {\r\n    //Model a Candidate\r\n    struct Post{\r\n        uint id; // uniqe id for each post(comes from external database)\r\n        uint upVote; // upvote count\r\n        uint downVote; // downvote count\r\n        uint256 goalAmount; // goal donation amount(when the money rearches the amount, send the money to destination)\r\n        uint256 donationTotalAmount; // total donation amount in wei (1 ether is 1000000000000000000)\r\n        address destinationAddress;  // address that this contract sends the money to\r\n        mapping(address => int) voters; // each user vote status\r\n        mapping(address => uint256) donations; // each user donation amount\r\n    }\r\n\r\n    // voters status -1: downvote,\r\n    //                0: no vote\r\n    //                1: upvote\r\n\r\n    //posts key value pair.(the key is post's id)\r\n    mapping(uint => Post) public posts;\r\n\r\n    // store post ids as array for looping through\r\n    uint[] public postIdsArray;\r\n\r\n    // Store Post Count\r\n    uint public postCount;\r\n\r\n    // constructor\r\n    constructor() public{\r\n        addPost(98, 5);\r\n        addPost(99, 5);\r\n    }\r\n\r\n    // funciton returns how much more to reach the goal\r\n    function howMuchMoreToGoal(uint _postId) public view returns(uint256){\r\n     return posts[_postId].goalAmount - posts[_postId].donationTotalAmount;\r\n    }\r\n\r\n    // return postIds array\r\n    function getPostIds() public view returns(uint[] memory){\r\n        return postIdsArray;\r\n    }\r\n\r\n    // function to add a new post with id parameter\r\n    function addPost (uint _id, uint _goal) public {\r\n        require(_id > 0, \"Invalid post\");\r\n        // increment post count\r\n        postCount ++;\r\n        // set the post id in postIds array\r\n        postIdsArray.push(_id);\r\n        // convert Ether to Wei\r\n        uint256  weiGoal = _goal * 1000000000000000000;\r\n\r\n        // set default values (5 ether is set as a goal amount and destination is current user (they are only for dubug))\r\n        posts[_id] = Post(_id, 0, 0, weiGoal, 0, msg.sender);\r\n    }\r\n\r\n    function donate (uint _postId) public payable{\r\n        // check if valid post\r\n        require(_postId > 0, \"Invalid Post\");\r\n        // donation amount has to be positive value\r\n        require(msg.value > 0, \"Invalid Amount\");\r\n\r\n        if( posts[_postId].voters[msg.sender] == -1){\r\n            // if the user has done downVote, toggle the vote status\r\n            posts[_postId].downVote--;\r\n            posts[_postId].upVote++;\r\n\r\n            // set the user as upvoter\r\n            posts[_postId].voters[msg.sender] = 1;\r\n        }else{\r\n            if(posts[_postId].voters[msg.sender] == 0)\r\n            {\r\n                // if the user has never voted, set the user as upvoter\r\n                posts[_postId].upVote++;\r\n            }\r\n            // set user as upvoter\r\n            posts[_postId].voters[msg.sender] = 1;\r\n        }\r\n\r\n        // add amount to total\r\n        posts[_postId].donationTotalAmount += msg.value;\r\n        // add amount to individual donation amount\r\n        posts[_postId].donations[msg.sender] += msg.value;\r\n\r\n        // when donation amount reaches the goal, send money out\r\n        if(posts[_postId].donationTotalAmount >= posts[_postId].goalAmount){\r\n           transferDonationToDestination(posts[_postId].destinationAddress);\r\n        }\r\n\r\n    }\r\n\r\n    function downVote (uint _postId) public {\r\n        require(_postId > 0, \"Invalid Post\");\r\n        require(posts[_postId].voters[msg.sender] != -1, \"You are not able to downVote twice\");\r\n\r\n        if( posts[_postId].voters[msg.sender] == 1){\r\n            // if user was upvoter then toggle the vote status\r\n            posts[_postId].upVote--;\r\n            posts[_postId].donationTotalAmount -= posts[_postId].donations[msg.sender];\r\n\r\n            //Refund action\r\n            // return the money that the user donated\r\n            msg.sender.transfer(posts[_postId].donations[msg.sender]);\r\n            // set 0 to the individual donation amount\r\n            posts[_postId].donations[msg.sender] = 0;\r\n        }\r\n\r\n        posts[_postId].downVote++;\r\n\r\n        // set the user as down voter\r\n        posts[_postId].voters[msg.sender] = -1;\r\n    }\r\n\r\n    function transferDonationToDestination(address _destination) private{\r\n        // set the money to destination\r\n    }\r\n}",
  "sourcePath": "D:/GithubRepos/tonyMaster/trust-charity/contracts/Donation.sol",
  "compiler": {
    "name": "solc",
    "version": "0.5.8+commit.23d335f2.Emscripten.clang"
  },
  "schemaVersion": "3.0.11",
  "updatedAt": "2019-10-01T11:59:41.387Z",
  "devdoc": {
    "methods": {}
  },
  "userdoc": {
    "methods": {}
  }
}