{
  "contractName": "Donation",
  "abi": [
    {
      "constant": true,
      "inputs": [
        {
          "name": "",
          "type": "uint256"
        }
      ],
      "name": "posts",
      "outputs": [
        {
          "name": "id",
          "type": "uint256"
        },
        {
          "name": "upVote",
          "type": "uint256"
        },
        {
          "name": "downVote",
          "type": "uint256"
        },
        {
          "name": "goalAmount",
          "type": "uint256"
        },
        {
          "name": "donationTotalAmount",
          "type": "uint256"
        },
        {
          "name": "destinationAddress",
          "type": "address"
        }
      ],
      "payable": false,
      "stateMutability": "view",
      "type": "function"
    },
    {
      "constant": true,
      "inputs": [],
      "name": "postCount",
      "outputs": [
        {
          "name": "",
          "type": "uint256"
        }
      ],
      "payable": false,
      "stateMutability": "view",
      "type": "function"
    },
    {
      "inputs": [],
      "payable": false,
      "stateMutability": "nonpayable",
      "type": "constructor"
    },
    {
      "constant": true,
      "inputs": [
        {
          "name": "_postId",
          "type": "uint256"
        }
      ],
      "name": "howMuchMoreToGoal",
      "outputs": [
        {
          "name": "",
          "type": "uint256"
        }
      ],
      "payable": false,
      "stateMutability": "view",
      "type": "function"
    },
    {
      "constant": false,
      "inputs": [
        {
          "name": "_postId",
          "type": "uint256"
        }
      ],
      "name": "donate",
      "outputs": [],
      "payable": true,
      "stateMutability": "payable",
      "type": "function"
    },
    {
      "constant": false,
      "inputs": [
        {
          "name": "_postId",
          "type": "uint256"
        }
      ],
      "name": "downVote",
      "outputs": [],
      "payable": false,
      "stateMutability": "nonpayable",
      "type": "function"
    }
  ],
  "bytecode": "0x608060405234801561001057600080fd5b5061002a6001610048640100000000026401000000009004565b6100436002610048640100000000026401000000009004565b6101b2565b6000811115156100c0576040517f08c379a000000000000000000000000000000000000000000000000000000000815260040180806020018281038252600c8152602001807f496e76616c696420706f7374000000000000000000000000000000000000000081525060200191505060405180910390fd5b60016000815480929190600101919050555060c0604051908101604052808281526020016000815260200160008152602001674563918244f400008152602001600081526020013373ffffffffffffffffffffffffffffffffffffffff16815250600080838152602001908152602001600020600082015181600001556020820151816001015560408201518160020155606082015181600301556080820151816004015560a08201518160050160006101000a81548173ffffffffffffffffffffffffffffffffffffffff021916908373ffffffffffffffffffffffffffffffffffffffff16021790555090505050565b610aad806101c16000396000f3fe60806040526004361061006d576000357c0100000000000000000000000000000000000000000000000000000000900463ffffffff1680630b1e7f831461007257806317906c2e146101105780631ae9392d1461013b578063f14faf6f14610176578063f3d0eb07146101a4575b600080fd5b34801561007e57600080fd5b506100ab6004803603602081101561009557600080fd5b81019080803590602001909291905050506101f3565b604051808781526020018681526020018581526020018481526020018381526020018273ffffffffffffffffffffffffffffffffffffffff1673ffffffffffffffffffffffffffffffffffffffff168152602001965050505050505060405180910390f35b34801561011c57600080fd5b5061012561024f565b6040518082815260200191505060405180910390f35b34801561014757600080fd5b506101746004803603602081101561015e57600080fd5b8101908080359060200190929190505050610255565b005b6101a26004803603602081101561018c57600080fd5b8101908080359060200190929190505050610664565b005b3480156101b057600080fd5b506101dd600480360360208110156101c757600080fd5b8101908080359060200190929190505050610a48565b6040518082815260200191505060405180910390f35b60006020528060005260406000206000915090508060000154908060010154908060020154908060030154908060040154908060050160009054906101000a900473ffffffffffffffffffffffffffffffffffffffff16905086565b60015481565b6000811115156102cd576040517f08c379a000000000000000000000000000000000000000000000000000000000815260040180806020018281038252600c8152602001807f496e76616c696420506f7374000000000000000000000000000000000000000081525060200191505060405180910390fd5b7fffffffffffffffffffffffffffffffffffffffffffffffffffffffffffffffff60008083815260200190815260200160002060060160003373ffffffffffffffffffffffffffffffffffffffff1673ffffffffffffffffffffffffffffffffffffffff16815260200190815260200160002054141515156103dd576040517f08c379a00000000000000000000000000000000000000000000000000000000081526004018080602001828103825260228152602001807f596f7520617265206e6f742061626c6520746f20646f776e566f74652074776981526020017f636500000000000000000000000000000000000000000000000000000000000081525060400191505060405180910390fd5b600160008083815260200190815260200160002060060160003373ffffffffffffffffffffffffffffffffffffffff1673ffffffffffffffffffffffffffffffffffffffff1681526020019081526020016000205414156105c557600080828152602001908152602001600020600101600081548092919060019003919050555060008082815260200190815260200160002060070160003373ffffffffffffffffffffffffffffffffffffffff1673ffffffffffffffffffffffffffffffffffffffff16815260200190815260200160002054600080838152602001908152602001600020600401600082825403925050819055503373ffffffffffffffffffffffffffffffffffffffff166108fc60008084815260200190815260200160002060070160003373ffffffffffffffffffffffffffffffffffffffff1673ffffffffffffffffffffffffffffffffffffffff168152602001908152602001600020549081150290604051600060405180830381858888f1935050505015801561056b573d6000803e3d6000fd5b50600080600083815260200190815260200160002060070160003373ffffffffffffffffffffffffffffffffffffffff1673ffffffffffffffffffffffffffffffffffffffff168152602001908152602001600020819055505b600080828152602001908152602001600020600201600081548092919060010191905055507fffffffffffffffffffffffffffffffffffffffffffffffffffffffffffffffff60008083815260200190815260200160002060060160003373ffffffffffffffffffffffffffffffffffffffff1673ffffffffffffffffffffffffffffffffffffffff1681526020019081526020016000208190555050565b6000811115156106dc576040517f08c379a000000000000000000000000000000000000000000000000000000000815260040180806020018281038252600c8152602001807f496e76616c696420506f7374000000000000000000000000000000000000000081525060200191505060405180910390fd5b600034111515610754576040517f08c379a000000000000000000000000000000000000000000000000000000000815260040180806020018281038252600e8152602001807f496e76616c696420416d6f756e7400000000000000000000000000000000000081525060200191505060405180910390fd5b7fffffffffffffffffffffffffffffffffffffffffffffffffffffffffffffffff60008083815260200190815260200160002060060160003373ffffffffffffffffffffffffffffffffffffffff1673ffffffffffffffffffffffffffffffffffffffff16815260200190815260200160002054141561087657600080828152602001908152602001600020600201600081548092919060019003919050555060008082815260200190815260200160002060010160008154809291906001019190505550600160008083815260200190815260200160002060060160003373ffffffffffffffffffffffffffffffffffffffff1673ffffffffffffffffffffffffffffffffffffffff16815260200190815260200160002081905550610950565b600080600083815260200190815260200160002060060160003373ffffffffffffffffffffffffffffffffffffffff1673ffffffffffffffffffffffffffffffffffffffff1681526020019081526020016000205414156108f757600080828152602001908152602001600020600101600081548092919060010191905055505b600160008083815260200190815260200160002060060160003373ffffffffffffffffffffffffffffffffffffffff1673ffffffffffffffffffffffffffffffffffffffff168152602001908152602001600020819055505b34600080838152602001908152602001600020600401600082825401925050819055503460008083815260200190815260200160002060070160003373ffffffffffffffffffffffffffffffffffffffff1673ffffffffffffffffffffffffffffffffffffffff168152602001908152602001600020600082825401925050819055506000808281526020019081526020016000206003015460008083815260200190815260200160002060040154101515610a4557610a4460008083815260200190815260200160002060050160009054906101000a900473ffffffffffffffffffffffffffffffffffffffff16610a7e565b5b50565b60008060008381526020019081526020016000206004015460008084815260200190815260200160002060030154039050919050565b5056fea165627a7a7230582001ddbb2d585baac39358174e92d11474f6e9d7c984c771a669249169e920fa800029",
  "source": "pragma solidity ^0.5.0;\n\ncontract Donation {\n    //Model a Candidate\n    struct Post{\n        uint id; // uniqe id for each post(comes from external database)\n        uint upVote; // upvote count\n        uint downVote; // downvote count\n        uint256 goalAmount; // goal donation amount(when the money rearches the amount, send the money to destination)\n        uint256 donationTotalAmount; // total donation amount in wei (1 ether is 1000000000000000000)\n        address destinationAddress;  // address that this contract sends the money to\n        mapping(address => int) voters; // each user vote status\n        mapping(address => uint256) donations; // each user donation amount\n    }\n\n    // voters status -1: downvote,\n    //                0: no vote\n    //                1: upvote\n\n    //posts key value pair.(the key is post's id)\n    mapping(uint => Post) public posts;\n\n    // Store Post Count\n    uint public postCount;\n\n    // constructor\n    constructor() public{\n        addPost(1);\n        addPost(2);\n    }\n\n    // funciton returns how much more to reach the goal\n    function howMuchMoreToGoal(uint _postId) view public returns(uint256){\n     return posts[_postId].goalAmount - posts[_postId].donationTotalAmount;\n    }\n\n    // function to add a new post with id parameter\n    function addPost (uint _id) private {\n        require(_id > 0, \"Invalid post\");\n        // increment post count\n        postCount ++;\n\n        // set default values (5 ether is set as a goal amount and destination is current user (they are only for dubug))\n        posts[_id] = Post(_id, 0, 0, 5000000000000000000, 0, msg.sender);\n    }\n\n    function donate (uint _postId) public payable{\n        // check if valid post\n        require(_postId > 0, \"Invalid Post\");\n        // donation amount has to be positive value\n        require(msg.value > 0, \"Invalid Amount\");\n\n        if( posts[_postId].voters[msg.sender] == -1){\n            // if the user has done downVote, toggle the vote status\n            posts[_postId].downVote--;\n            posts[_postId].upVote++;\n\n            // set the user as upvoter\n            posts[_postId].voters[msg.sender] = 1;\n        }else{\n            if(posts[_postId].voters[msg.sender] == 0)\n            {\n                // if the user has never voted, set the user as upvoter\n                posts[_postId].upVote++;\n            }\n            // set user as upvoter\n            posts[_postId].voters[msg.sender] = 1;\n        }\n\n        // add amount to total\n        posts[_postId].donationTotalAmount += msg.value;\n        // add amount to individual donation amount\n        posts[_postId].donations[msg.sender] += msg.value;\n\n        // when donation amount reaches the goal, send money out\n        if(posts[_postId].donationTotalAmount >= posts[_postId].goalAmount){\n           transferDonationToDestination(posts[_postId].destinationAddress);\n        }\n\n    }\n\n    function downVote (uint _postId) public {\n        require(_postId > 0, \"Invalid Post\");\n        require(posts[_postId].voters[msg.sender] != -1, \"You are not able to downVote twice\");\n\n        if( posts[_postId].voters[msg.sender] == 1){\n            // if user was upvoter then toggle the vote status\n            posts[_postId].upVote--;\n            posts[_postId].donationTotalAmount -= posts[_postId].donations[msg.sender];\n\n            //Refund action\n            // return the money that the user donated\n            msg.sender.transfer(posts[_postId].donations[msg.sender]);\n            // set 0 to the individual donation amount\n            posts[_postId].donations[msg.sender] = 0;\n        }\n\n        posts[_postId].downVote++;\n\n        // set the user as down voter\n        posts[_postId].voters[msg.sender] = -1;\n    }\n\n    function transferDonationToDestination(address _destination) private{\n        // set the money to destination\n    }\n}",
  "sourcePath": "/Users/mizuki/Study/D19/AdvancedStudio2/trust-charity/contracts/Donation.sol",
  "compiler": {
    "name": "solc",
    "version": "0.5.0+commit.1d4f565a.Emscripten.clang"
  },
  "schemaVersion": "3.0.9",
  "updatedAt": "2019-09-09T06:13:08.933Z",
  "devdoc": {
    "methods": {}
  },
  "userdoc": {
    "methods": {}
  }
}