{
  "contractName": "Election",
  "abi": [
    {
      "constant": true,
      "inputs": [
        {
          "name": "",
          "type": "uint256"
        }
      ],
      "name": "posts",
      "outputs": [
        {
          "name": "id",
          "type": "uint256"
        },
        {
          "name": "upVote",
          "type": "uint256"
        },
        {
          "name": "downVote",
          "type": "uint256"
        },
        {
          "name": "donationAmount",
          "type": "uint256"
        }
      ],
      "payable": false,
      "stateMutability": "view",
      "type": "function"
    },
    {
      "constant": true,
      "inputs": [],
      "name": "postCount",
      "outputs": [
        {
          "name": "",
          "type": "uint256"
        }
      ],
      "payable": false,
      "stateMutability": "view",
      "type": "function"
    },
    {
      "inputs": [],
      "payable": false,
      "stateMutability": "nonpayable",
      "type": "constructor"
    },
    {
      "constant": false,
      "inputs": [
        {
          "name": "_postId",
          "type": "uint256"
        },
        {
          "name": "_amount",
          "type": "uint256"
        }
      ],
      "name": "donate",
      "outputs": [],
      "payable": false,
      "stateMutability": "nonpayable",
      "type": "function"
    },
    {
      "constant": false,
      "inputs": [
        {
          "name": "_postId",
          "type": "uint256"
        }
      ],
      "name": "downVote",
      "outputs": [],
      "payable": false,
      "stateMutability": "nonpayable",
      "type": "function"
    }
  ],
  "bytecode": "0x608060405234801561001057600080fd5b5061002a6001610048640100000000026401000000009004565b6100436002610048640100000000026401000000009004565b610137565b6000811115156100c0576040517f08c379a000000000000000000000000000000000000000000000000000000000815260040180806020018281038252600c8152602001807f496e76616c696420706f7374000000000000000000000000000000000000000081525060200191505060405180910390fd5b600160008154809291906001019190505550608060405190810160405280828152602001600081526020016000815260200160008152506000808381526020019081526020016000206000820151816000015560208201518160010155604082015181600201556060820151816003015590505050565b61071e806101466000396000f3fe608060405260043610610062576000357c0100000000000000000000000000000000000000000000000000000000900463ffffffff1680630b1e7f83146100675780630cdd53f6146100cb57806317906c2e146101105780631ae9392d1461013b575b600080fd5b34801561007357600080fd5b506100a06004803603602081101561008a57600080fd5b8101908080359060200190929190505050610176565b6040518085815260200184815260200183815260200182815260200194505050505060405180910390f35b3480156100d757600080fd5b5061010e600480360360408110156100ee57600080fd5b8101908080359060200190929190803590602001909291905050506101a6565b005b34801561011c57600080fd5b50610125610464565b6040518082815260200191505060405180910390f35b34801561014757600080fd5b506101746004803603602081101561015e57600080fd5b810190808035906020019092919050505061046a565b005b60006020528060005260406000206000915090508060000154908060010154908060020154908060030154905084565b60008211151561021e576040517f08c379a000000000000000000000000000000000000000000000000000000000815260040180806020018281038252600c8152602001807f496e76616c696420506f7374000000000000000000000000000000000000000081525060200191505060405180910390fd5b600081111515610296576040517f08c379a000000000000000000000000000000000000000000000000000000000815260040180806020018281038252600e8152602001807f496e76616c696420416d6f756e7400000000000000000000000000000000000081525060200191505060405180910390fd5b7fffffffffffffffffffffffffffffffffffffffffffffffffffffffffffffffff60008084815260200190815260200160002060040160003373ffffffffffffffffffffffffffffffffffffffff1673ffffffffffffffffffffffffffffffffffffffff16815260200190815260200160002054141561035c576000808381526020019081526020016000206002016000815480929190600190039190505550600080838152602001908152602001600020600101600081548092919060010191905055505b600080600084815260200190815260200160002060040160003373ffffffffffffffffffffffffffffffffffffffff1673ffffffffffffffffffffffffffffffffffffffff1681526020019081526020016000205414156103dd57600080838152602001908152602001600020600101600081548092919060010191905055505b8060008084815260200190815260200160002060040160003373ffffffffffffffffffffffffffffffffffffffff1673ffffffffffffffffffffffffffffffffffffffff1681526020019081526020016000206000828254019250508190555080600080848152602001908152602001600020600301600082825401925050819055505050565b60015481565b6000811115156104e2576040517f08c379a000000000000000000000000000000000000000000000000000000000815260040180806020018281038252600c8152602001807f496e76616c696420506f7374000000000000000000000000000000000000000081525060200191505060405180910390fd5b600080600083815260200190815260200160002060040160003373ffffffffffffffffffffffffffffffffffffffff1673ffffffffffffffffffffffffffffffffffffffff16815260200190815260200160002054121515156105d3576040517f08c379a00000000000000000000000000000000000000000000000000000000081526004018080602001828103825260228152602001807f596f7520617265206e6f742061626c6520746f20646f776e566f74652074776981526020017f636500000000000000000000000000000000000000000000000000000000000081525060400191505060405180910390fd5b600080600083815260200190815260200160002060040160003373ffffffffffffffffffffffffffffffffffffffff1673ffffffffffffffffffffffffffffffffffffffff1681526020019081526020016000205413156106ca57600080828152602001908152602001600020600101600081548092919060019003919050555060008082815260200190815260200160002060040160003373ffffffffffffffffffffffffffffffffffffffff1673ffffffffffffffffffffffffffffffffffffffff16815260200190815260200160002054600080838152602001908152602001600020600301600082825403925050819055505b600080828152602001908152602001600020600201600081548092919060010191905055505056fea165627a7a723058204398944c287ecda9a2d194c5d8a187dc6726ffb065d953bce4cfe5c1ac22e3660029",
  "source": "pragma solidity ^0.5.0;\n\ncontract Election {\n    //Model a Candidate\n    struct Post{\n        uint id;\n        uint upVote;\n        uint downVote;\n        uint donationAmount;\n        mapping(address => int) voters;\n    }\n\n    //Fetch Candidate\n    mapping(uint => Post) public posts;\n\n    // Store Candidate Count\n    uint public postCount;\n\n    // event votedEvent(uint indexed_candidateId);\n\n    constructor() public{\n        addPost(1);\n        addPost(2);\n    }\n\n    function addPost (uint _id) private {\n        require(_id > 0, \"Invalid post\");\n        postCount ++;\n        posts[_id] = Post(_id, 0, 0,0);\n    }\n\n    function donate (uint _postId, uint _amount) public {\n        // check if valid candidate\n        require(_postId > 0, \"Invalid Post\");\n\n        require(_amount > 0, \"Invalid Amount\");\n\n        if( posts[_postId].voters[msg.sender] == -1){\n            posts[_postId].downVote--;\n            posts[_postId].upVote++;\n        }\n        if(posts[_postId].voters[msg.sender] == 0)\n        {\n            posts[_postId].upVote++;\n        }\n        // record that voter has voted\n        posts[_postId].voters[msg.sender] += int(_amount);\n        posts[_postId].donationAmount += _amount;\n        // update candidate vote count\n    }\n\n    function downVote (uint _postId) public {\n        require(_postId > 0, \"Invalid Post\");\n\n        require(posts[_postId].voters[msg.sender] >= 0, \"You are not able to downVote twice\");\n\n        if( posts[_postId].voters[msg.sender] > 0){\n            posts[_postId].upVote--;\n            posts[_postId].donationAmount -= uint(posts[_postId].voters[msg.sender]);\n            //Todo: Add refund function\n        }\n        posts[_postId].downVote++;\n    }\n}",
  "sourcePath": "/Users/tony/Study/ethereum/trust-charity/contracts/Election.sol",
  "compiler": {
    "name": "solc",
    "version": "0.5.0+commit.1d4f565a.Emscripten.clang"
  },
  "schemaVersion": "3.0.9",
  "updatedAt": "2019-08-09T02:39:04.475Z",
  "devdoc": {
    "methods": {}
  },
  "userdoc": {
    "methods": {}
  }
}